{
  "_format": "hh3-artifact-1",
  "contractName": "Marketplace",
  "sourceName": "contracts/Marketplace.sol",
  "abi": [
    {
      "inputs": [
        {
          "internalType": "address",
          "name": "_tokenAddress",
          "type": "address"
        }
      ],
      "stateMutability": "nonpayable",
      "type": "constructor"
    },
    {
      "inputs": [
        {
          "internalType": "address",
          "name": "owner",
          "type": "address"
        }
      ],
      "name": "OwnableInvalidOwner",
      "type": "error"
    },
    {
      "inputs": [
        {
          "internalType": "address",
          "name": "account",
          "type": "address"
        }
      ],
      "name": "OwnableUnauthorizedAccount",
      "type": "error"
    },
    {
      "anonymous": false,
      "inputs": [
        {
          "indexed": true,
          "internalType": "address",
          "name": "previousOwner",
          "type": "address"
        },
        {
          "indexed": true,
          "internalType": "address",
          "name": "newOwner",
          "type": "address"
        }
      ],
      "name": "OwnershipTransferred",
      "type": "event"
    },
    {
      "inputs": [],
      "name": "owner",
      "outputs": [
        {
          "internalType": "address",
          "name": "",
          "type": "address"
        }
      ],
      "stateMutability": "view",
      "type": "function"
    },
    {
      "inputs": [
        {
          "internalType": "address",
          "name": "student",
          "type": "address"
        },
        {
          "internalType": "uint256",
          "name": "cost",
          "type": "uint256"
        }
      ],
      "name": "processPurchase",
      "outputs": [],
      "stateMutability": "nonpayable",
      "type": "function"
    },
    {
      "inputs": [],
      "name": "renounceOwnership",
      "outputs": [],
      "stateMutability": "nonpayable",
      "type": "function"
    },
    {
      "inputs": [],
      "name": "token",
      "outputs": [
        {
          "internalType": "contract EduToken",
          "name": "",
          "type": "address"
        }
      ],
      "stateMutability": "view",
      "type": "function"
    },
    {
      "inputs": [
        {
          "internalType": "address",
          "name": "newOwner",
          "type": "address"
        }
      ],
      "name": "transferOwnership",
      "outputs": [],
      "stateMutability": "nonpayable",
      "type": "function"
    }
  ],
  "bytecode": "0x608060405234801561000f575f80fd5b5060405161042738038061042783398101604081905261002e916100d1565b338061005357604051631e4fbdf760e01b81525f600482015260240160405180910390fd5b61005c81610082565b50600180546001600160a01b0319166001600160a01b03929092169190911790556100fe565b5f80546001600160a01b038381166001600160a01b0319831681178455604051919092169283917f8be0079c531659141344cd1fd0a4f28419497f9722a3daafe3b4186f6b6457e09190a35050565b5f602082840312156100e1575f80fd5b81516001600160a01b03811681146100f7575f80fd5b9392505050565b61031c8061010b5f395ff3fe608060405234801561000f575f80fd5b5060043610610055575f3560e01c8063715018a61461005957806378547d5f146100635780638da5cb5b14610076578063f2fde38b1461009e578063fc0c546a146100b1575b5f80fd5b6100616100c4565b005b610061610071366004610256565b6100d7565b5f546001600160a01b03165b6040516001600160a01b03909116815260200160405180910390f35b6100616100ac36600461027e565b61017e565b600154610082906001600160a01b031681565b6100cc6101c0565b6100d55f6101ec565b565b6100df6101c0565b6001546001600160a01b03166323b872dd833061010485670de0b6b3a764000061029e565b6040516001600160e01b031960e086901b1681526001600160a01b03938416600482015292909116602483015260448201526064016020604051808303815f875af1158015610155573d5f803e3d5ffd5b505050506040513d601f19601f8201168201806040525081019061017991906102c7565b505050565b6101866101c0565b6001600160a01b0381166101b457604051631e4fbdf760e01b81525f60048201526024015b60405180910390fd5b6101bd816101ec565b50565b5f546001600160a01b031633146100d55760405163118cdaa760e01b81523360048201526024016101ab565b5f80546001600160a01b038381166001600160a01b0319831681178455604051919092169283917f8be0079c531659141344cd1fd0a4f28419497f9722a3daafe3b4186f6b6457e09190a35050565b80356001600160a01b0381168114610251575f80fd5b919050565b5f8060408385031215610267575f80fd5b6102708361023b565b946020939093013593505050565b5f6020828403121561028e575f80fd5b6102978261023b565b9392505050565b80820281158282048414176102c157634e487b7160e01b5f52601160045260245ffd5b92915050565b5f602082840312156102d7575f80fd5b81518015158114610297575f80fdfea2646970667358221220e77d652a67be1947d4389689435cda8f0bd44d298aed2ba1ff141a62007fcb7464736f6c63430008140033",
  "linkReferences": {},
  "deployedLinkReferences": {},
  "immutableReferences": {},
  "inputSourceName": "project/contracts/Marketplace.sol",
  "buildInfoId": "solc-0_8_20-fc6181f93b67bf6db5d09dc5352c72fce683a2bf"
}