{
  "_format": "hh3-artifact-1",
  "contractName": "EduToken",
  "sourceName": "contracts/EduToken.sol",
  "abi": [
    {
      "inputs": [
        {
          "internalType": "address",
          "name": "initialOwner",
          "type": "address"
        }
      ],
      "stateMutability": "nonpayable",
      "type": "constructor"
    },
    {
      "inputs": [
        {
          "internalType": "address",
          "name": "spender",
          "type": "address"
        },
        {
          "internalType": "uint256",
          "name": "allowance",
          "type": "uint256"
        },
        {
          "internalType": "uint256",
          "name": "needed",
          "type": "uint256"
        }
      ],
      "name": "ERC20InsufficientAllowance",
      "type": "error"
    },
    {
      "inputs": [
        {
          "internalType": "address",
          "name": "sender",
          "type": "address"
        },
        {
          "internalType": "uint256",
          "name": "balance",
          "type": "uint256"
        },
        {
          "internalType": "uint256",
          "name": "needed",
          "type": "uint256"
        }
      ],
      "name": "ERC20InsufficientBalance",
      "type": "error"
    },
    {
      "inputs": [
        {
          "internalType": "address",
          "name": "approver",
          "type": "address"
        }
      ],
      "name": "ERC20InvalidApprover",
      "type": "error"
    },
    {
      "inputs": [
        {
          "internalType": "address",
          "name": "receiver",
          "type": "address"
        }
      ],
      "name": "ERC20InvalidReceiver",
      "type": "error"
    },
    {
      "inputs": [
        {
          "internalType": "address",
          "name": "sender",
          "type": "address"
        }
      ],
      "name": "ERC20InvalidSender",
      "type": "error"
    },
    {
      "inputs": [
        {
          "internalType": "address",
          "name": "spender",
          "type": "address"
        }
      ],
      "name": "ERC20InvalidSpender",
      "type": "error"
    },
    {
      "inputs": [
        {
          "internalType": "address",
          "name": "owner",
          "type": "address"
        }
      ],
      "name": "OwnableInvalidOwner",
      "type": "error"
    },
    {
      "inputs": [
        {
          "internalType": "address",
          "name": "account",
          "type": "address"
        }
      ],
      "name": "OwnableUnauthorizedAccount",
      "type": "error"
    },
    {
      "anonymous": false,
      "inputs": [
        {
          "indexed": true,
          "internalType": "address",
          "name": "owner",
          "type": "address"
        },
        {
          "indexed": true,
          "internalType": "address",
          "name": "spender",
          "type": "address"
        },
        {
          "indexed": false,
          "internalType": "uint256",
          "name": "value",
          "type": "uint256"
        }
      ],
      "name": "Approval",
      "type": "event"
    },
    {
      "anonymous": false,
      "inputs": [
        {
          "indexed": true,
          "internalType": "address",
          "name": "previousOwner",
          "type": "address"
        },
        {
          "indexed": true,
          "internalType": "address",
          "name": "newOwner",
          "type": "address"
        }
      ],
      "name": "OwnershipTransferred",
      "type": "event"
    },
    {
      "anonymous": false,
      "inputs": [
        {
          "indexed": true,
          "internalType": "address",
          "name": "from",
          "type": "address"
        },
        {
          "indexed": true,
          "internalType": "address",
          "name": "to",
          "type": "address"
        },
        {
          "indexed": false,
          "internalType": "uint256",
          "name": "value",
          "type": "uint256"
        }
      ],
      "name": "Transfer",
      "type": "event"
    },
    {
      "inputs": [
        {
          "internalType": "address",
          "name": "owner",
          "type": "address"
        },
        {
          "internalType": "address",
          "name": "spender",
          "type": "address"
        }
      ],
      "name": "allowance",
      "outputs": [
        {
          "internalType": "uint256",
          "name": "",
          "type": "uint256"
        }
      ],
      "stateMutability": "view",
      "type": "function"
    },
    {
      "inputs": [
        {
          "internalType": "address",
          "name": "spender",
          "type": "address"
        },
        {
          "internalType": "uint256",
          "name": "value",
          "type": "uint256"
        }
      ],
      "name": "approve",
      "outputs": [
        {
          "internalType": "bool",
          "name": "",
          "type": "bool"
        }
      ],
      "stateMutability": "nonpayable",
      "type": "function"
    },
    {
      "inputs": [
        {
          "internalType": "address",
          "name": "student",
          "type": "address"
        },
        {
          "internalType": "uint256",
          "name": "amount",
          "type": "uint256"
        }
      ],
      "name": "awardStudent",
      "outputs": [],
      "stateMutability": "nonpayable",
      "type": "function"
    },
    {
      "inputs": [
        {
          "internalType": "address",
          "name": "account",
          "type": "address"
        }
      ],
      "name": "balanceOf",
      "outputs": [
        {
          "internalType": "uint256",
          "name": "",
          "type": "uint256"
        }
      ],
      "stateMutability": "view",
      "type": "function"
    },
    {
      "inputs": [],
      "name": "decimals",
      "outputs": [
        {
          "internalType": "uint8",
          "name": "",
          "type": "uint8"
        }
      ],
      "stateMutability": "view",
      "type": "function"
    },
    {
      "inputs": [],
      "name": "name",
      "outputs": [
        {
          "internalType": "string",
          "name": "",
          "type": "string"
        }
      ],
      "stateMutability": "view",
      "type": "function"
    },
    {
      "inputs": [],
      "name": "owner",
      "outputs": [
        {
          "internalType": "address",
          "name": "",
          "type": "address"
        }
      ],
      "stateMutability": "view",
      "type": "function"
    },
    {
      "inputs": [],
      "name": "renounceOwnership",
      "outputs": [],
      "stateMutability": "nonpayable",
      "type": "function"
    },
    {
      "inputs": [],
      "name": "symbol",
      "outputs": [
        {
          "internalType": "string",
          "name": "",
          "type": "string"
        }
      ],
      "stateMutability": "view",
      "type": "function"
    },
    {
      "inputs": [],
      "name": "totalSupply",
      "outputs": [
        {
          "internalType": "uint256",
          "name": "",
          "type": "uint256"
        }
      ],
      "stateMutability": "view",
      "type": "function"
    },
    {
      "inputs": [
        {
          "internalType": "address",
          "name": "to",
          "type": "address"
        },
        {
          "internalType": "uint256",
          "name": "value",
          "type": "uint256"
        }
      ],
      "name": "transfer",
      "outputs": [
        {
          "internalType": "bool",
          "name": "",
          "type": "bool"
        }
      ],
      "stateMutability": "nonpayable",
      "type": "function"
    },
    {
      "inputs": [
        {
          "internalType": "address",
          "name": "from",
          "type": "address"
        },
        {
          "internalType": "address",
          "name": "to",
          "type": "address"
        },
        {
          "internalType": "uint256",
          "name": "value",
          "type": "uint256"
        }
      ],
      "name": "transferFrom",
      "outputs": [
        {
          "internalType": "bool",
          "name": "",
          "type": "bool"
        }
      ],
      "stateMutability": "nonpayable",
      "type": "function"
    },
    {
      "inputs": [
        {
          "internalType": "address",
          "name": "newOwner",
          "type": "address"
        }
      ],
      "name": "transferOwnership",
      "outputs": [],
      "stateMutability": "nonpayable",
      "type": "function"
    }
  ],
  "bytecode": "0x608060405234801562000010575f80fd5b5060405162000f6738038062000f678339810160408190526200003391620002ba565b806040518060400160405280600881526020016722b23aaa37b5b2b760c11b8152506040518060400160405280600381526020016245445560e81b815250816003908162000082919062000389565b50600462000091828262000389565b5050506001600160a01b038116620000c357604051631e4fbdf760e01b81525f60048201526024015b60405180910390fd5b620000ce81620000fe565b50620000f781620000e26012600a62000560565b620000f190620f424062000570565b6200014f565b50620005a0565b600580546001600160a01b038381166001600160a01b0319831681179093556040519116919082907f8be0079c531659141344cd1fd0a4f28419497f9722a3daafe3b4186f6b6457e0905f90a35050565b6001600160a01b0382166200017a5760405163ec442f0560e01b81525f6004820152602401620000ba565b620001875f83836200018b565b5050565b6001600160a01b038316620001b9578060025f828254620001ad91906200058a565b909155506200022b9050565b6001600160a01b0383165f90815260208190526040902054818110156200020d5760405163391434e360e21b81526001600160a01b03851660048201526024810182905260448101839052606401620000ba565b6001600160a01b0384165f9081526020819052604090209082900390555b6001600160a01b038216620002495760028054829003905562000267565b6001600160a01b0382165f9081526020819052604090208054820190555b816001600160a01b0316836001600160a01b03167fddf252ad1be2c89b69c2b068fc378daa952ba7f163c4a11628f55a4df523b3ef83604051620002ad91815260200190565b60405180910390a3505050565b5f60208284031215620002cb575f80fd5b81516001600160a01b0381168114620002e2575f80fd5b9392505050565b634e487b7160e01b5f52604160045260245ffd5b600181811c908216806200031257607f821691505b6020821081036200033157634e487b7160e01b5f52602260045260245ffd5b50919050565b601f82111562000384575f81815260208120601f850160051c810160208610156200035f5750805b601f850160051c820191505b8181101562000380578281556001016200036b565b5050505b505050565b81516001600160401b03811115620003a557620003a5620002e9565b620003bd81620003b68454620002fd565b8462000337565b602080601f831160018114620003f3575f8415620003db5750858301515b5f19600386901b1c1916600185901b17855562000380565b5f85815260208120601f198616915b82811015620004235788860151825594840194600190910190840162000402565b50858210156200044157878501515f19600388901b60f8161c191681555b5050505050600190811b01905550565b634e487b7160e01b5f52601160045260245ffd5b600181815b80851115620004a557815f190482111562000489576200048962000451565b808516156200049757918102915b93841c93908002906200046a565b509250929050565b5f82620004bd575060016200055a565b81620004cb57505f6200055a565b8160018114620004e45760028114620004ef576200050f565b60019150506200055a565b60ff84111562000503576200050362000451565b50506001821b6200055a565b5060208310610133831016604e8410600b841016171562000534575081810a6200055a565b62000540838362000465565b805f190482111562000556576200055662000451565b0290505b92915050565b5f620002e260ff841683620004ad565b80820281158282048414176200055a576200055a62000451565b808201808211156200055a576200055a62000451565b6109b980620005ae5f395ff3fe608060405234801561000f575f80fd5b50600436106100cb575f3560e01c8063715018a611610088578063a9059cbb11610063578063a9059cbb14610199578063dd62ed3e146101ac578063f2e23c78146101e4578063f2fde38b146101f7575f80fd5b8063715018a61461016c5780638da5cb5b1461017657806395d89b4114610191575f80fd5b806306fdde03146100cf578063095ea7b3146100ed57806318160ddd1461011057806323b872dd14610122578063313ce5671461013557806370a0823114610144575b5f80fd5b6100d761020a565b6040516100e49190610707565b60405180910390f35b6101006100fb36600461076d565b61029a565b60405190151581526020016100e4565b6002545b6040519081526020016100e4565b610100610130366004610795565b6102b3565b604051601281526020016100e4565b6101146101523660046107ce565b6001600160a01b03165f9081526020819052604090205490565b6101746102d6565b005b6005546040516001600160a01b0390911681526020016100e4565b6100d76102e9565b6101006101a736600461076d565b6102f8565b6101146101ba3660046107ee565b6001600160a01b039182165f90815260016020908152604080832093909416825291909152205490565b6101746101f236600461076d565b610305565b6101746102053660046107ce565b610330565b6060600380546102199061081f565b80601f01602080910402602001604051908101604052809291908181526020018280546102459061081f565b80156102905780601f1061026757610100808354040283529160200191610290565b820191905f5260205f20905b81548152906001019060200180831161027357829003601f168201915b5050505050905090565b5f336102a7818585610372565b60019150505b92915050565b5f336102c0858285610384565b6102cb858585610400565b506001949350505050565b6102de61045d565b6102e75f61048a565b565b6060600480546102199061081f565b5f336102a7818585610400565b61030d61045d565b61032c8261031d6012600a61094b565b6103279084610959565b6104db565b5050565b61033861045d565b6001600160a01b03811661036657604051631e4fbdf760e01b81525f60048201526024015b60405180910390fd5b61036f8161048a565b50565b61037f838383600161050f565b505050565b6001600160a01b038381165f908152600160209081526040808320938616835292905220545f198110156103fa57818110156103ec57604051637dc7a0d960e11b81526001600160a01b0384166004820152602481018290526044810183905260640161035d565b6103fa84848484035f61050f565b50505050565b6001600160a01b03831661042957604051634b637e8f60e11b81525f600482015260240161035d565b6001600160a01b0382166104525760405163ec442f0560e01b81525f600482015260240161035d565b61037f8383836105e1565b6005546001600160a01b031633146102e75760405163118cdaa760e01b815233600482015260240161035d565b600580546001600160a01b038381166001600160a01b0319831681179093556040519116919082907f8be0079c531659141344cd1fd0a4f28419497f9722a3daafe3b4186f6b6457e0905f90a35050565b6001600160a01b0382166105045760405163ec442f0560e01b81525f600482015260240161035d565b61032c5f83836105e1565b6001600160a01b0384166105385760405163e602df0560e01b81525f600482015260240161035d565b6001600160a01b03831661056157604051634a1406b160e11b81525f600482015260240161035d565b6001600160a01b038085165f90815260016020908152604080832093871683529290522082905580156103fa57826001600160a01b0316846001600160a01b03167f8c5be1e5ebec7d5bd14f71427d1e84f3dd0314c0f7b2291e5b200ac8c7c3b925846040516105d391815260200190565b60405180910390a350505050565b6001600160a01b03831661060b578060025f8282546106009190610970565b9091555061067b9050565b6001600160a01b0383165f908152602081905260409020548181101561065d5760405163391434e360e21b81526001600160a01b0385166004820152602481018290526044810183905260640161035d565b6001600160a01b0384165f9081526020819052604090209082900390555b6001600160a01b038216610697576002805482900390556106b5565b6001600160a01b0382165f9081526020819052604090208054820190555b816001600160a01b0316836001600160a01b03167fddf252ad1be2c89b69c2b068fc378daa952ba7f163c4a11628f55a4df523b3ef836040516106fa91815260200190565b60405180910390a3505050565b5f6020808352835180828501525f5b8181101561073257858101830151858201604001528201610716565b505f604082860101526040601f19601f8301168501019250505092915050565b80356001600160a01b0381168114610768575f80fd5b919050565b5f806040838503121561077e575f80fd5b61078783610752565b946020939093013593505050565b5f805f606084860312156107a7575f80fd5b6107b084610752565b92506107be60208501610752565b9150604084013590509250925092565b5f602082840312156107de575f80fd5b6107e782610752565b9392505050565b5f80604083850312156107ff575f80fd5b61080883610752565b915061081660208401610752565b90509250929050565b600181811c9082168061083357607f821691505b60208210810361085157634e487b7160e01b5f52602260045260245ffd5b50919050565b634e487b7160e01b5f52601160045260245ffd5b600181815b808511156108a557815f190482111561088b5761088b610857565b8085161561089857918102915b93841c9390800290610870565b509250929050565b5f826108bb575060016102ad565b816108c757505f6102ad565b81600181146108dd57600281146108e757610903565b60019150506102ad565b60ff8411156108f8576108f8610857565b50506001821b6102ad565b5060208310610133831016604e8410600b8410161715610926575081810a6102ad565b610930838361086b565b805f190482111561094357610943610857565b029392505050565b5f6107e760ff8416836108ad565b80820281158282048414176102ad576102ad610857565b808201808211156102ad576102ad61085756fea2646970667358221220c2e19d5973a65add376c0a8532822edf2505b52a065f25dc3c4c3efa2799d90164736f6c63430008140033",
  "linkReferences": {},
  "deployedLinkReferences": {},
  "immutableReferences": {},
  "inputSourceName": "project/contracts/EduToken.sol",
  "buildInfoId": "solc-0_8_20-78e17f55a0f61663712786f53066b022808e61b7"
}